:100000000C942A000C9447000C9447000C94470071
:100010000C9451020C9447000C9447000C94470038
:100020000C9447000C9497000C9447000C944700E4
:100030000C9447000C9447000C9447000C94470024
:100040000C9447000C9447000C9447000C94470014
:100050000C94470011241FBECFE5D4E0DEBFCDBF16
:1000600012E0A0E6B0E0E8E4F6E002C005900D92F0
:10007000AE3BB107D9F722E0AEEBB2E001C01D9272
:10008000A23CB207E1F70E941F030C9422030C94D8
:10009000000029E130E098E0D99A8BB389278BBB27
:1000A0008BB389278BBB21503109B1F79BB384E017
:1000B00098279BBB9BB389278BBB089529E130E030
:1000C00098E0D9988BB389278BBB8BB389278BBBDF
:1000D00021503109B1F79BB384E098279BBB9BB3B8
:1000E00089278BBB089583309105A9F034F48130C2
:1000F000910549F0029759F008958430910579F0FF
:10010000059789F00895929A939896980895939AEE
:10011000929894980895949A939895980895959A9A
:10012000949896980895969A9298959808951F9203
:100130000F920FB60F9211242F933F934F935F931B
:100140006F937F938F939F93AF93BF93EF93FF939F
:100150008091B902813009F049C188EC82BF809159
:10016000BD0290E00E9473008091BC0290E0019774
:100170009C01220F331F220F331F820F931F18166B
:1001800019060CF058C120E030E048E0D99A8BB352
:1001900084278BBB8BB384278BBB2F5F3F4F809112
:1001A000BC0290E00197BC01660F771F660F771FB6
:1001B000860F971F281739074CF33DC18091BB026A
:1001C0008130C9F48091BD0290E00197FC01EE0FEF
:1001D000FF1FEE0FFF1FE80FF91FE20FF31FEE0FD7
:1001E000FF1FEA57FD4F80819181019711F4D99A41
:1001F000BEC0D998BCC08230C9F48091BD0290E0E5
:100200000197FC01EE0FFF1FEE0FFF1FE80FF91F14
:10021000E20FF31FEE0FFF1FEC5AFD4F808191811B
:10022000019711F4D99AA3C0D998A1C08330C9F419
:100230008091BD0290E00197FC01EE0FFF1FEE0FD1
:10024000FF1FE80FF91FE20FF31FEE0FFF1FEE5D18
:10025000FD4F80819181019711F4D99A88C0D99876
:1002600086C08430C9F48091BD0290E00197FC0102
:10027000EE0FFF1FEE0FFF1FE80FF91FE20FF31F36
:10028000EE0FFF1FE65AFE4F80819181019711F416
:10029000D99A6DC0D9986BC08530C9F48091BD02E0
:1002A00090E00197FC01EE0FFF1FEE0FFF1FE80F1C
:1002B000F91FE20FF31FEE0FFF1FE051FE4F808189
:1002C0009181019711F4D99A52C0D99850C08630C3
:1002D000C9F48091BD0290E00197FC01EE0FFF1F71
:1002E000EE0FFF1FE80FF91FE20FF31FEE0FFF1FC6
:1002F000E254FE4F80819181019711F4D99A37C061
:10030000D99835C08730C9F48091BD0290E001973B
:10031000FC01EE0FFF1FEE0FFF1FE80FF91FE20FAA
:10032000F31FEE0FFF1FE457FE4F8081918101976D
:1003300011F4D99A1CC0D9981AC08930C1F480919F
:10034000BD0290E00197FC01EE0FFF1FEE0FFF1FB3
:10035000E80FF91FE20FF31FEE0FFF1FE65AFE4FE3
:1003600080819181019711F4D99A01C0D9988BB3FA
:1003700084278BBB8BB384278BBB2F5F3F4F2530EC
:10038000310509F01BCF2091BC023BEF3203C001C5
:100390001124499618161906B4F440E050E038E0EC
:1003A0006BEFD99A8BB383278BBB8BB383278BBB24
:1003B0004F5F5F4F2091BC026203C0011124499638
:1003C0004817590774F39BB384E098279BBB9BB3F2
:1003D00089278BBB8091BD028F5F863019F0809397
:1003E000BD022DC081E08093BD0229C0833039F564
:1003F00085E382BF8091C1028F5F8093C1028C3000
:10040000F1F48091BE028F5F853019F08093BE02B7
:1004100002C01092BE021092C1028091BF028F5F93
:100420008C3319F08093BF020AC01092BF0281E0A2
:100430008093B90204C020E030E048E0BFCEFF91D5
:10044000EF91BF91AF919F918F917F916F915F914C
:100450004F913F912F910F900FBE0F901F901895C5
:1004600083B783BF83B7856083BF89B7816089BF46
:1004700085B585BD85B5876085BD89B7806489BF31
:100480008AB38E608ABB81B38C6781BBD998D49ABA
:10049000DC9A88EC82BF8AE184BD0E94490078948E
:1004A00008951F920F920FB60F9211242F933F932E
:1004B0004F935F936F937F938F939F93AF93BF936C
:1004C000EF93FF938091B902813049F58AE184BDB1
:1004D0008091C1028F5F8093C102863009F09EC077
:1004E0008091BC0281508093BC02811115C0809123
:1004F000BB028F5F8093BB028A3059F481E0809306
:10050000BB028093BD0282E08093B9020E945E002C
:10051000949885E08093BC021092C1027FC0823023
:10052000E9F585E384BD8091C1028F5F8093C102AC
:100530008C3009F073C08091BD0290E00E9473007E
:100540009091BA02992331F08091BD028F5F809320
:10055000BD0205C08091BD0281508093BD02809193
:10056000BD028B7F813049F48091B8028F5F809308
:10057000B80281E098279093BA028091B8028D303A
:1005800051F483E08093B90281E08093BD028093AF
:10059000B8028093BA021092C10240C08330F1F5D4
:1005A00088EC84BD8091C00290E001960E947300A7
:1005B00080E090E069E138E04091C0022091BE0205
:1005C000FC01649FE00DF11D1124E20FF11DEE0FFF
:1005D000FF1FE05AFF4F408151814130510511F416
:1005E000D99A01C0D9982BB323272BBB2BB3232730
:1005F0002BBB019689319105F9F69BB384E09827CE
:100600009BBB9BB389278BBB8091C0028F5F8530DA
:1006100019F08093C00202C01092C002FF91EF91C6
:10062000BF91AF919F918F917F916F915F914F910A
:100630003F912F910F900FBE0F901F9018950E9421
:080640003002FFCFF894FFCF58
:1006480000000000000000000000000001000100A0
:10065800010000000000010001000100000000008E
:10066800010001000100000000000000000000007F
:10067800000001000100010001000100010000006C
:10068800000000000100010000000000000001005F
:10069800010000000000000001000000000001004F
:1006A800000001000100000000000100000000003F
:1006B800010001000000010001000000000001002D
:1006C800000000000100000001000000010000001F
:1006D800000000000100010001000100000000000E
:1006E80001000100000001000000010000000100FD
:1006F80001000000010001000000010000000000EE
:1007080000000000000001000000010000000000DF
:1007180000000100000001000000010000000000CE
:1007280001000000000001000100010000000000BD
:1007380000000000000001000100010001000100AC
:100748000100010001000100010001000100010099
:100758000100010001000100010001000100010089
:10076800010001000100010001000100010000007A
:10077800000000000100000001000100010000006D
:10078800000001000100010000000000010001005C
:10079800010000000100000000000000010001004D
:1007A800010001000100000001000100010001003A
:1007B800000001000100010001000000010001002B
:1007C800010001000000000000000000000000001F
:1007D800000000000000000000000100010001000E
:1007E80001000000010000000000000000000100FE
:1007F80001000100010000000000000000000000EE
:1008080000000000000000000000000001000000DF
:1008180001000100010001000100000001000100C9
:1008280001000100010000000100000000000000BC
:1008380000000000000001000100010000000000AD
:10084800010001000100000001000000010000009B
:10085800010001000000010000000100010001008A
:10086800000001000100000000000000000000007E
:10087800010001000000010001000100010000006A
:100888000100010001000100000001000100010059
:0E089800010000000100010001010101060144
:00000001FF
