:100000000C942A000C9447000C9447000C94470071
:100010000C9447020C9447000C9447000C94470042
:100020000C9447000C9497000C9447000C944700E4
:100030000C9447000C9447000C9447000C94470024
:100040000C9447000C9447000C9447000C94470014
:100050000C94470011241FBECFE5D4E0DEBFCDBF16
:1000600011E0A0E6B0E0EEEAF5E002C005900D92E6
:10007000A43CB107D9F721E0A4ECB1E001C01D9286
:10008000A53CB207E1F70E94D2020C94D5020C9471
:10009000000029E130E098E0D99A8BB389278BBB27
:1000A0008BB389278BBB21503109B1F79BB384E017
:1000B00098279BBB9BB389278BBB089529E130E030
:1000C00098E0D9988BB389278BBB8BB389278BBBDF
:1000D00021503109B1F79BB384E098279BBB9BB3B8
:1000E00089278BBB089583309105A9F034F48130C2
:1000F000910549F0029759F008958430910579F0FF
:10010000059789F00895929A939896980895939AEE
:10011000929894980895949A939895980895959A9A
:10012000949896980895969A9298959808951F9203
:100130000F920FB60F9211242F933F934F935F931B
:100140006F937F938F939F93AF93BF93EF93FF939F
:100150008091BF01813009F068C188EC82BF809135
:10016000C30190E00E9473008091C20190E001976A
:100170009C01220F331F220F331F820F931F18166B
:1001800019060CF04EC120E030E048E0D99A8BB35C
:1001900084278BBB8BB384278BBB2F5F3F4F809112
:1001A000C20190E00197BC01660F771F660F771FB1
:1001B000860F971F281739074CF333C18091C1016F
:1001C0008130C9F48091C30190E00197FC01EE0FEA
:1001D000FF1FEE0FFF1FE80FF91FE20FF31FEE0FD7
:1001E000FF1FE457FE4F80819181019711F4D99A46
:1001F000D9C0D998D7C08230C9F48091C30190E0AA
:100200000197FC01EE0FFF1FEE0FFF1FE80FF91F14
:10021000E20FF31FEE0FFF1FE65AFE4F8081918120
:10022000019711F4D99ABEC0D998BCC08330C9F4E3
:100230008091C30190E00197FC01EE0FFF1FEE0FCC
:10024000FF1FE80FF91FE20FF31FEE0FFF1FE85D1E
:10025000FE4F80819181019711F4D99AA3C0D9985A
:10026000A1C08430C9F48091C30190E00197FC01E2
:10027000EE0FFF1FEE0FFF1FE80FF91FE20FF31F36
:10028000EE0FFF1FE05AFF4F80819181019711F41B
:10029000D99A88C0D99886C08530C9F48091C301A5
:1002A00090E00197FC01EE0FFF1FEE0FFF1FE80F1C
:1002B000F91FE20FF31FEE0FFF1FEA50FF4F80817F
:1002C0009181019711F4D99A6DC0D9986BC086308D
:1002D000C9F48091C30190E00197FC01EE0FFF1F6C
:1002E000EE0FFF1FE80FF91FE20FF31FEE0FFF1FC6
:1002F000EC53FF4F80819181019711F4D99A52C03C
:10030000D99850C08730C9F48091C30190E001971B
:10031000FC01EE0FFF1FEE0FFF1FE80FF91FE20FAA
:10032000F31FEE0FFF1FEE56FF4F80819181019763
:1003300011F4D99A37C0D99835C08830C9F4809162
:10034000C30190E00197FC01EE0FFF1FEE0FFF1FAE
:10035000E80FF91FE20FF31FEE0FFF1FE457FE4FE8
:1003600080819181019711F4D99A1CC0D9981AC043
:100370008930C1F48091C30190E00197FC01EE0F38
:10038000FF1FEE0FFF1FE80FF91FE20FF31FEE0F25
:10039000FF1FE05AFF4F80819181019711F4D99A94
:1003A00001C0D9988BB384278BBB8BB384278BBBBD
:1003B0002F5F3F4F2530310509F000CF2091C2015A
:1003C0003BEF3203C0011124499618161906B4F404
:1003D00040E050E038E06BEFD99A8BB383278BBBBA
:1003E0008BB383278BBB4F5F5F4F2091C2016203AA
:1003F000C001112449964817590774F39BB384E050
:1004000098279BBB9BB389278BBB8091C3018F5FD0
:10041000863019F08093C30108C081E08093C30146
:1004200004C020E030E048E0C9CEFF91EF91BF91D9
:10043000AF919F918F917F916F915F914F913F917C
:100440002F910F900FBE0F901F90189583B783BF09
:1004500083B7856083BF89B7816089BF85B585BD56
:1004600085B5876085BD89B7806489BF8AB38E6092
:100470008ABB81B38C6781BBD998D49ADC9A88EC0B
:1004800082BF8AE184BD0E944900789408951F923A
:100490000F920FB60F9211242F933F934F935F93B8
:1004A0006F937F938F939F93AF93BF93EF93FF933C
:1004B0008091BF01813049F58AE184BD8091C401FA
:1004C0008F5F8093C401863009F05BC08091C201C8
:1004D00081508093C201811115C08091C1018F5F4D
:1004E0008093C1018A3059F481E08093C1018093E7
:1004F000C30182E08093BF010E945E00949885E072
:100500008093C2011092C4013CC08230D1F585E3D2
:1005100084BD8091C4018F5F8093C4018C3089F5C4
:100520008091C30190E00E9473009091C0019923D3
:1005300031F08091C3018F5F8093C30105C080912A
:10054000C30181508093C3018091C3018B7F8130AF
:1005500049F48091BE018F5F8093BE0181E09827AE
:100560009093C0018091BE018D3049F481E0809369
:10057000BF018093C3018093BE018093C00110929C
:10058000C401FF91EF91BF91AF919F918F917F91A6
:100590006F915F914F913F912F910F900FBE0F90F0
:0E05A0001F9018950E942602FFCFF894FFCFFF
:1005AE000100010001000100010001000100010035
:1005BE000100010001000100010001000100010025
:1005CE000100010001000100010001000100010015
:1005DE000100010001000000000000000100000009
:1005EE0001000100000001000100000000000000F9
:1005FE0001000100000001000000010000000100E8
:10060E0001000000010001000000010001000100D6
:10061E0001000100010001000100010000000100C5
:10062E0001000100010000000100010001000100B5
:10063E0000000100010000000100010001000000A7
:10064E000100000001000100000001000100000097
:10065E000000000001000000010001000000000089
:10066E000100010001000000000000000000000079
:10067E000000010000000100010001000100010066
:10068E000000010001000100010001000000010056
:10069E00000000000000000000000000010001004A
:1006AE000100000000000100010001000000010037
:1006BE000000010000000100010000000100000028
:1006CE000100010001000000010001000000000017
:1006DE000000000000000100010000000100010008
:1006EE0001000100000001000100010001000000F6
:1006FE0001000100010001000000010001000101E4
:04070E0001010601DE
:00000001FF
